:020000040800F2
:10000000A005002005010008E5140008E51000081F
:100010004D140008C10E00089F20000800000000D9
:10002000000000000000000000000000B116000801
:10003000C50E000800000000591500089D170008B3
:100040001F0100081F0100081F0100081F01000810
:100050001F0100081F0100081F0100081F01000800
:100060001F0100081F0100081F0100081F010008F0
:100070001F0100081F0100081F0100081F010008E0
:100080001F0100081F0100081F0100081F010008D0
:100090001F0100081F0100081F0100081F010008C0
:1000A0001F0100081F0100081F0100081F010008B0
:1000B0001F0100081F010008151900081F01000892
:1000C0001F0100081F0100081F0100081F01000890
:1000D0001F010008711E00081F0100081F01000811
:1000E0001F0100081F0100081F010008DFF810D0E1
:1000F00000F0C6FC00480047B12D0008AFF30080B7
:10010000A00500200648804706480047FEE7FEE7B6
:10011000FEE7FEE7FEE7FEE7FEE7FEE7FEE7FEE7B7
:10012000A1170008ED000008F0B480EA0102D40F26
:100130004200B2EB410F02D20246084611464A0085
:1001400042D0C30DDDB2C1F3C752AD1A202D35DA4E
:10015000C1F3160141F4000204B15242C5F1200678
:1001600002FA06F12A411044B3EBD05F23D0C4B1A8
:10017000012DA0EBC35009DCF0BC4FF0004202EAB5
:10018000C352DBB200F5000000F0ABBB400000F151
:10019000807000EBC350A0F1807040EAD17049003C
:1001A00009E0490841EAC071A0EBC35000F5000026
:1001B000400800EBC350F0BC00F08ABB6142012252
:1001C00002EB4101001BF6E7F0BC704781F00041F3
:1001D000AAE780F00040A7E780EA010210B502F02C
:1001E0000043400022D04A001FD0010E01EB1261F3
:1001F000C0F35600C2F3560240F4000042F400027D
:10020000A0FB022000047F39140400D0401C50EAF7
:10021000124001D44000491EC2B20C0604EBD010BB
:10022000401C4008802A02D003E0002010BD20F0CE
:100230000100002900DA0020184310BD30B480EA24
:10024000010202F0004530F0004221F0004013D0DE
:1002500090B1C30DD40DC2F31601C0F31600E41A19
:1002600041F4000140F400027D34914201D3641C4A
:1002700000E04900002C02DA30BC002070474FF447
:1002800000000023914201D3891A034340084FEA3A
:100290004101F7D151B1914202D14FF0004105E047
:1002A00002D24FF0010101E06FF0010103EBC450F5
:1002B000284430BC00F00CBB2DE9FE4F804681EA9B
:1002C0000300C00F0C46009021F0004123F00045D0
:1002D000B8EB0200A94105D24046214690461C4693
:1002E0000B46024623F00040104347D0270DC7F3CA
:1002F0000A00C3F30A510290401A019040286BDAB9
:10030000C3F3130040F4801B0098924620B10023F1
:10031000D2EB030A63EB0B0B01985946C0F1400284
:10032000504600F055FA06460D4650465946019A89
:1003300000F06DFA10EB08006141002487EA1152C9
:1003400084EAE7731A4340D0009A62B3019A012A03
:100350004FEA075215DC001B61EB02014FF000422F
:1003600002EA0752CDE90042001C41F580113246F5
:100370002B4600F0F3FA03B0BDE8F08F404621466B
:10038000F9E7001B61EB0201001C41F58013001826
:100390005B412018A2F5001747EB030140EAD57036
:1003A000B6196D4111E06D084FEA360645EAC07591
:1003B0004FEA0752001B61EB0201001C41F580115E
:1003C00049084FEA30000019514132462B4603B02C
:1003D000BDE8F04F00F0B3BA0098012240000023BE
:1003E000D0EB020263EBE073009821464FEAE07421
:1003F000B8EB000061EB0401E9E783F000435BE741
:1004000081F0004158E72DE9FE4F81EA030404F032
:10041000004421F0004100944FF0000B23F0004312
:1004200050EA01045ED052EA03045BD0C3F30A54DD
:10043000C1F30A552C44A4F2F3340194A0FB0254F6
:10044000C1F3130141F48011C3F3130343F4801388
:1004500001FB024400FB034E840A970A44EA8154DC
:1004600047EA8357A4FB076802958D0A05FB0785B9
:100470004FEA932C04FB0C542705029D4FEA0658C3
:1004800047EA1637B5EB08056EEB070C870E920EA0
:1004900047EA811742EA8312A7FB0201B6EB0B0180
:1004A00064EB00042B0D43EA0C335E1844EB1C5044
:1004B000DA465146E7FB0201C5F313044FEA0B335A
:1004C00043EA14534FEA0432019C43EA0603A4F1C1
:1004D0000C040294009CCDE900B400F03FFA03B094
:1004E000BDE8F08F00200146F9E72DE9F04D81EAE3
:1004F000030404F0004B21F0004514464FF0000ABD
:1005000023F0004150EA050220D054EA01021DD038
:10051000C5F30A570246C5F31303C1F31300C1F331
:100520000A5640F4801543F48013A7EB0608101B0D
:10053000D64608F2FD3873EB050002D308F1010836
:1005400001E092185B41B8F1000F03DA0020014688
:10055000BDE8F08D00204FF48011064684460EE081
:10056000171B73EB050705D3121B63EB050306434B
:100570004CEA010C49084FEA300092185B4150EAFE
:100580000107EDD152EA030012D082EA040083EAA7
:100590000501084305D0101BAB4106D20122002300
:1005A00006E000224FF0004302E06FF0010253101A
:1005B0001AEB06004CEB085110EB0A0041EB0B0163
:1005C000BDE8F04D00F0BBB9C10F80EAE07008440F
:1005D000CA079623002100F084B996230022114611
:1005E00000F07FB90EB5C10F80EAE0700844CA0779
:1005F000002140F233438DE80E000A460B4600F01E
:10060000ADF903B000BD0EB540F2334102910021B7
:10061000CDE900110A460B4600F0A0F903B000BD79
:1006200000F0004220F00040C10DC0F3160040F47D
:1006300000007F2901DA00207047962903DCC1F110
:100640009601C84001E096398840002AF4D0404223
:10065000704720F00040C10DC0F3160040F40000C8
:100660007F2901DA00207047962903DCC1F1960149
:10067000C840704796398840704770B5C1F30A5238
:1006800001F000450024C1F3130140F2FF3341F4AF
:1006900080119A4201DA002070BD40F233439A4241
:1006A000A2F2334203DC524200F0A1F800E0904095
:1006B0002C43F1D0404270BDC1F30A5210B5C1F3D2
:1006C000130140F2FF3341F480119A4201DA002015
:1006D00010BD40F233439A42A2F2334203DC52424D
:1006E00000F085F810BD904010BD00F0004230F0E1
:1006F00000400AD0C10D01F56071C0F3160042EA56
:100700000151C2084007114370470020014670475D
:1007100030B5041E71F1000404DB4FF00044404288
:1007200064EB0101141E73F1000405DB1C464FF05D
:100730000043524263EB04038B4208BF824230BD48
:1007400030B5041E71F1000404DB4FF00044404258
:1007500064EB0101141E73F1000405DB1C464FF02D
:100760000043524263EB0403994208BF904230BDFC
:1007700001F0004330B421F0004150EA010206D0FC
:100780000A0DA2F56072C1F31301002A02DC30BC2D
:1007900000207047440F44EAC104C100E01830BC97
:1007A00000EBC25000F094B8002801DBC0F100401B
:1007B000002901DBC1F1004181427047002801DBC3
:1007C000C0F10040002901DBC1F1004188427047BF
:1007D000202A04DB203A00FA02F100207047914001
:1007E000C2F1200320FA03F3194390407047202AF6
:1007F00004DB203A21FA02F00021704721FA02F3CB
:10080000D040C2F120029140084319467047202A87
:1008100006DBCB17203A41FA02F043EAE07306E028
:1008200041FA02F3D040C2F1200291400843194638
:10083000704700000FB4002300B589B00CA90091E7
:100840000B996FF00042CB601E4B06931E4B079333
:100850000423CDE901321D4A089202466B4600206E
:1008600000F0BAF909B05DF814FB70B586B0064621
:100870004FF0FF300091CDE90101002015460C46F4
:1008800004903246694604A8FFF7D4FF0246049854
:10089000211825B108B1084600E0204628600498D8
:1008A00000280DD0002A02DD0098884208D0081BDD
:1008B0000094CDE901043246694604A8FFF7BAFF67
:1008C00006B070BD110E00082F0E0008A50A000822
:1008D0000029A8BF7047401C490008BF20F0010054
:1008E000704710B4B0FA80FC00FA0CF050EA010432
:1008F00004BF10BC704749B1CCF1200421FA04F4C4
:1009000011FA0CF118BF012121430843A3EB0C019C
:10091000CB1D4FEA00614FEA102042BF002010BCFF
:10092000704700EBC35010440029A4BF10BC7047AF
:10093000401C490008BF20F0010010BC704710B5F2
:10094000141E73F1000408DA401C41F100019218F2
:100950005B411A4301D120F0010010BD2DE9F04D9B
:1009600092469B4611B1B1FA81F202E0B0FA80F2F0
:1009700020329046FFF72CFF04460F4640EA0A005B
:1009800041EA0B0153465A46084313D0114653EA35
:10099000010019D0C8F140025046FFF728FF054674
:1009A0000E46504659464246FFF712FF084305D00F
:1009B000012004E020463946BDE8F08D00200543C3
:1009C00046EAE0762C4337430A986305E40AA0EB35
:1009D00008000022FD0A44EA47540A3002D50020EC
:1009E0000146E9E7010510196941DDE908450019EB
:1009F0006941BDE8F04DA2E72DE9FE4FC3F30A5768
:100A000001F000450024C1F30A56C3F31303C1F3F8
:100A1000130143F4801312EB020AA64641F480113D
:100A2000009543EB030CA7F1010B16E0B0EB0A00B5
:100A300061EB0C01071E71F1000707DA4FF00008A7
:100A4000D0EB080085F0004568EB0101171A73EB45
:100A50000107EBD3761E001849415E45F6DA50EAED
:100A6000010209D0CDE900E5002213460296FFF706
:100A700075FF03B0BDE8F08F20460099F9E700004C
:100A8000064C074D06E0E06840F0010394E80700DB
:100A900098471034AC42F6D3FFF72CFB20380008FF
:100AA00040380008C0B24FF4F05100F0E9B900003E
:100AB0002DE9FF4F087883B09946FF2805D0491CDF
:100AC0002D2804D00024002008E000200BE00124A1
:100AD000F9E700EB800003EB4000491C0B78FF2B8B
:100AE000F7D104B1404200230293147819461D4601
:100AF0002D2C01D02B2C04D1521C2D2C13D00024D2
:100B00000294AA461478FF2C0FD00A25A3FB05787F
:100B100001FB05814FF0000C03FB0C11521CE31983
:100B20004AEB0101EEE70124EAE7814453EA0100C0
:100B300002D019F5C87F06DA03980021C0E9001138
:100B400007B0BDE8F08F0025AE4E2F46DFF8B88223
:100B5000184600F0A9F9CDE90001B9F1000002DA68
:100B6000C9F1000400E004460023A74A1AEB030B76
:100B700042EB045A12E0E00707D02A4633463846D3
:100B80004146FFF740FC074688462A463346104652
:100B90001946FFF738FC05460E466410002CEAD1D2
:100BA000DDE90001B9F1000F5A46534606DAFFF7B6
:100BB0009CFC3A464346FFF798FC05E0FFF723FC10
:100BC0003A464346FFF71FFC029A0AB181F0004102
:100BD000039AC2E90001B3E72DE9FF4F1F468DB02C
:100BE000D7E901464FF0FF382E2045464FF0000967
:100BF0000B90B9696D1C0E988847396A8246884700
:100C00000028F6D1BAF1FF3F0AD024F4D064002EB8
:100C100011DDBAF12B0F08D0BAF12D0F0BD102E084
:100C2000404611B08DE744F48064B9696D1C0E989C
:100C300088478246761E6946600501D52D2000E072
:100C40002B208DF8000001F1010B0DF1200809E0C7
:100C5000B9696D1C0E98884782460F9844F4007459
:100C6000761E0560002E02DDBAF1300FF0D00B9930
:100C70008A453ED144F0800406E00F99681CA9F132
:100C8000010944F400740860B9696D1C761E0E9861
:100C9000884782463028F0D02BE00B998A4505D151
:100CA000200603D444F08004761E18E0504601F07C
:100CB000A4FA08B30DF11301761E44F400748B45B9
:100CC00008D2AAF130000BF8010B200607D5A9F1D4
:100CD000010003E0200602D409F101008146A005CD
:100CE00002D50F99681C0860B9696D1C0E98884779
:100CF0008246002ED1DC53E0002E51DDBAF1650FA3
:100D000002D0BAF1450F4BD1A00549D5B9696D1C88
:100D100024F44074761E0E9888478246002E0CDD1F
:100D20002B2804D0BAF12D0F07D144F48074B9698F
:100D30006D1C0E9888478246761EE00501D52D2150
:100D400000E02B2108F8011BCDF82C8021E00DF1EB
:100D50002901761E44F4007488450CD2AAF13000B3
:100D600010F0FF0088F8000002D10B99884509D9DE
:100D700008F1010806E0E00501D5244801E042F24F
:100D80000F708146B9696D1C0E98884782460F988E
:100D90000560002E04DD504601F02FFA0028D6D160
:100DA000F9690E988847FF208BF8000088F800004A
:100DB0000020069007904B466A4608A906A8FFF750
:100DC00077FEA00502D46FF001002AE714F0240F8B
:100DD0000AD0E00714D1DDE906123868031D3B6034
:100DE0000068C0E900120BE0DDE90601FFF7C0FC76
:100DF0000146E00704D13868021D3A6000680160CE
:100E000028460EE7000014400000F03FF1D8FFFF35
:100E1000426842B1016811F8013B23B1521EC0E99A
:100E20000012184670470121C160881E7047426851
:100E30005AB1C368016843B983688B4205D0491E23
:100E4000521CC0E90012002070474FF0FF3070477D
:100E500070B521F0004303430CD0C1F30A550024C0
:100E6000D5EB040564EB0403D617AD1AB34102DBDE
:100E70000020014670BD201841EB025170BD0000FA
:100E80007F2801D9002208E0064A02EB5002C00781
:100E9000127800D1120902F00F02012090400840A0
:100EA00070470000E03700080EB540F2334202926E
:100EB0000022CDE900221346FFF750FD03B000BD2C
:100EC00000BFFEE77047000008B501211D2000F0BB
:100ED00065FB0121144800F0B9F84FF40050ADF85B
:100EE000000010208DF8030001208DF802006946F3
:100EF0000E4800F01FF84FF400510C4800F0EEF8D7
:100F00004FF40070ADF8000010208DF803000120B0
:100F10008DF802006946064800F00CF84FF40071A5
:100F2000034800F0DBF808BD00023000001001406B
:100F3000000C01402DE9F04102460025002600206A
:100F400000230024002791F803C00CF00F0591F84E
:100F500003C00CF0100CBCF1000F03D091F802C0DC
:100F60004CEA050591F800C0BCF1000F31D01468BF
:100F700000202BE04FF0010C0CFA00F3B1F800C098
:100F80000CEA03069E4220D183004FF00F0C0CFAAE
:100F900003F7BC4305FA03FC4CEA040491F803C0D0
:100FA000BCF1280F06D14FF0010C0CFA00FCC2F87E
:100FB00014C00AE091F803C0BCF1480F05D14FF00E
:100FC000010C0CFA00FCC2F810C0401C0828D1D358
:100FD0001460B1F800C0BCF1FF0F34DD546800208C
:100FE0002EE000F1080C4FF0010808FA0CF3B1F8FC
:100FF00000C00CEA03069E4221D183004FF00F0C83
:101000000CFA03F7BC4305FA03FC4CEA040491F81C
:1010100003C0BCF1280F05D100F1080C08FA0CF848
:10102000C2F8148091F803C0BCF1480F07D100F159
:10103000080C4FF0010808FA0CF8C2F81080401CA8
:101040000828CED35460BDE8F0810000F0B50A4610
:10105000002300240021002500F00046B6F1004FD7
:1010600002D11D4EF16901E01B4E7168C0F30345CA
:1010700083B200F44016B6F5401F08D121F070612C
:10108000154E766826F07066134F7E6012E000F40D
:101090008016B6F5801F06D1032606FA05F4A14393
:1010A00041F0706106E0460D360103FA06F6B143E1
:1010B00041F0706122B1460D360103FA06F6314364
:1010C00000F00046B6F1004F02D1034EF16101E09D
:1010D000014E7160F0BD00000000014041617047A9
:1010E0000161704700BFFEE721B1028842F00102B2
:1010F000028004E002884FF6FE731A4002807047B7
:1011000010B504460B48844209D10121480500F07E
:1011100035FA00214FF4001000F030FA08E0012108
:10112000880500F02BFA00214FF4800000F026FA29
:1011300010BD00000054004021B1028842F400724A
:10114000028004E002884FF6FF531A400280704785
:101150002DE9F04385B004460D460026B14604272C
:10116000DFF8CC80A6884FF6C0700640684600F0D5
:1011700035FADDF808802F48B8FBF0F01FFA80F947
:1011800046EA0906A68020884FF6FE7108402080B6
:1011900000262949286888420CD828684000B8FBF6
:1011A000F0F087B2042F00DA04273E4309F1010072
:1011B000208427E0E8884BF6FF71884206D1286832
:1011C00000EB4000B8FBF0F087B209E0286800EBC4
:1011D000C00101EB0010B8FBF0F087B247F4804784
:1011E000C7F30B0008B947F0010747F40040064376
:1011F0004FF4967009FB00F04FF47A7190FBF1F018
:10120000401C2084A683208840F00100208026888E
:101210004FF6F5300640A8886989084306432680C2
:10122000A88929890843208105B0BDE8F083000022
:1012300000127A0040420F00A086010000B585B080
:101240000121082000F0AAF90121480500F086F9E3
:10125000C020ADF810001C208DF8130003208DF87D
:10126000120004A91148FFF765FE1148FFF748FF77
:101270000020ADF804004BF6FF70ADF8060000202A
:10128000ADF808004FF48060ADF80A000001ADF839
:101290000C000848009069460548FFF759FF0121F6
:1012A0000348FFF721FF05B000BD0000000C01401E
:1012B00000540040801A06002DE9F04104464FF624
:1012C000FF75208840F48070208005E0281EA5F17D
:1012D000010501D1BDE8F081A08A00F001000028DD
:1012E000F4D06C2020824FF6FF7504E0281EA5F193
:1012F000010500D1EEE7A08A00F002000228F5D136
:10130000268B0C20208200BFA08A00F00400042855
:10131000FAD1208840F4006020804FF6FF752088C5
:1013200040F48070208004E0281EA5F1010500D162
:10133000D0E7A08A00F001000028F5D04FF6FF7535
:101340006D20208204E0281EA5F1010500D1C1E72F
:10135000A08A00F002000228F5D172B6268B208800
:101360004FF6FF310840208062B600BFA08A00F02F
:1013700004000428FAD172B601212046FFF7DCFEF2
:10138000208AC7B262B6208A00F0FF0800BF20881A
:1013900000F40070B0F5007FF9D0208840F4806040
:1013A000208020884FF2FF7108402080701C86B298
:1013B00008EB072080B28DE72DE9FC5F8346584695
:1013C000FFF793F907460F4A0F4BFFF71CF88146CA
:1013D0008A460E480068FFF788F907460C4A0D4B0D
:1013E000FFF711F84A465346CDE90001FEF764FFC6
:1013F0000546FFF7BDF90446044804602046BDE8F1
:10140000FC9F00009A9999999999B93F6C00002026
:10141000CDCCCCCCCCCCEC3F10B54FF480500649B1
:1014200008600648FFF748FF0549086000200549A5
:1014300008600549086010BD70000020005400409D
:1014400078000020740000207C00002000BFFEE730
:1014500010B50A4801680A480068FFF7AFF903D2DF
:1014600006480068064908600020064908604FF4F5
:1014700000710548FFF734FE10BD00005800002041
:101480005C00002050000020000C014010B501F06D
:1014900053F801F083FB0E490860052001F0DEFAE5
:1014A00001F034FF0B490860052001F0D7FA01F084
:1014B00015FF0949086009480078022803D1084649
:1014C000006807490860C82001F0C8FA10BD000094
:1014D00080000020240000201C0000204500002087
:1014E000840000207047000070B5002100230F2207
:1014F000C47804B3154C246804F4E064C4F5E064D3
:10150000210AC1F10403CA40447804FA03F1847843
:101510001440214309010E4C0678A155047804F0CB
:101520001F050124AC4005786D11AD0005F1E025E3
:10153000C5F8004109E0047804F01F050124AC401F
:10154000044D0678761145F8264070BD0CED00E09C
:1015500000E400E080E100E07047000029B1064AA5
:10156000D2690243044BDA6104E0034AD269824340
:10157000014BDA61704700000010024029B1064AB1
:1015800012690243044B1A6104E0034A1269824360
:10159000014B1A61704700000010024029B1064A51
:1015A00092690243044B9A6104E0034A92698243C0
:1015B000014B9A61704700000010024029B1064AB1
:1015C000D2680243044BDA6004E0034AD2688243E3
:1015D000014BDA60704700000010024030B5002176
:1015E0000022002400232D4D6D6805F00C0121B16F
:1015F000042905D0082923D105E0294D056022E002
:10160000274D05601FE0254D6D6805F47012234DD0
:101610006D6805F48034022505EB92421CB9214D1A
:10162000554305600BE01D4D6D6805F400351DB197
:101630001C4D5543056002E0194D5543056002E01D
:10164000174D056000BF00BF144D6D6805F0F00137
:101650000909154D6B5C0568DD4045600F4D6D68EF
:1016600005F4E061090A104D6B5C4568DD4085605A
:101670000A4D6D6805F46051C90A0B4D6B5C4568F5
:10168000DD40C560054D6D6805F44041890B074D8F
:101690006B5CC568B5FBF3F5056130BD0010024019
:1016A00000127A0000093D00000000201000002018
:1016B000704710B500F002F810BD00000CB5002016
:1016C000019000903348006840F480303149086050
:1016D00000BF3048006800F4003000900198401CC2
:1016E0000190009818B90198B0F5A06FF1D1294880
:1016F000006800F4003010B10120009001E00020EB
:1017000000900098012843D12348006840F0100061
:10171000214908600846006820F003000860084678
:10172000006840F0020008601A48406819494860A3
:101730000846406848600846406840F48060486059
:101740000846406820F47C1048600846406840F431
:10175000E81048600846006840F08070086000BFEC
:101760000C48006800F000700028F9D00948406873
:1017700020F00300074948600846406840F0020036
:10178000486000BF0348406800F00C000828F9D109
:101790000CBD000000100240002002407047000015
:1017A00010B51348006840F0010011490860084670
:1017B0004068104908400E494860084600680E49D4
:1017C00008400B4908600846006820F48020086043
:1017D0000846406820F4FE0048604FF41F0088600F
:1017E000FFF767FF4FF000600449086010BD00007C
:1017F000001002400000FFF8FFFFF6FE08ED00E0D9
:1018000000B589B001210420FFF7C8FE0121084678
:10181000FFF7A4FE0720ADF8200018208DF8230064
:1018200003208DF8220008A92448FFF783FB4FF01E
:10183000804000F0A7F80020ADF8140040F29F505F
:10184000ADF818002020ADF816000020ADF81A0001
:1018500005A94FF0804000F0B9FA6020ADF804000F
:101860000120ADF806000020ADF80A00ADF80C002C
:1018700001A94FF0804000F093F901A94FF080409A
:1018800000F0E4F901A94FF0804000F03FFA082190
:10189000C80600F0D1F90821C80600F029FA08218D
:1018A000C80600F083FA0121880700F04FF80121F3
:1018B000880700F05AF809B000BD00000008014098
:1018C0001FB501210420FFF749FE1E208DF80000FE
:1018D00001208DF803006846FFF706FE40F2E7306E
:1018E000ADF808004720ADF804000020ADF8060070
:1018F000ADF80A0001A9064800F068FA0122114675
:10190000034800F044F90121014800F02EF81FBD02
:101910000008004010B50121094800F027F901280E
:1019200009D108480068401C06490860064800685C
:10193000401C054908600121014800F013F810BD62
:1019400000080040940000209800002021B1028887
:1019500042F08002028004E002884FF67F731A4052
:1019600002807047CA430282704721B1028842F068
:101970000102028004E002884FF6FE731A400280E2
:101980007047000010B504466848844208D1012120
:10199000C014FFF713FE0021E014FFF70FFEC4E0B0
:1019A000B4F1804F08D101210846FFF7E7FD00217F
:1019B0000120FFF7E3FDB8E05D48844208D1012132
:1019C0000220FFF7DBFD00210220FFF7D7FDACE08E
:1019D0005848844208D101210420FFF7CFFD00219F
:1019E0000420FFF7CBFDA0E05348844208D1012139
:1019F0000820FFF7C3FD00210820FFF7BFFD94E09A
:101A00004E48844208D101211020FFF7B7FD002184
:101A10001020FFF7B3FD88E04948844208D1012136
:101A20002020FFF7ABFD00212020FFF7A7FD7CE081
:101A30004448844208D101214014FFF7BFFD002132
:101A40006014FFF7BBFD70E03F48844209D10121DB
:101A5000C804FFF7B3FD00214FF40020FFF7AEFDEF
:101A600063E03A48844209D101210805FFF7A6FD49
:101A700000214FF48010FFF7A1FD56E03448844266
:101A800009D101214805FFF799FD00214FF400100D
:101A9000FFF794FD49E02F48844208D101214020FE
:101AA000FFF76CFD00214020FFF768FD3DE02A486C
:101AB000844208D101218020FFF760FD00218020B1
:101AC000FFF75CFD31E02548844208D101218015F3
:101AD000FFF754FD0021A015FFF750FD25E0204839
:101AE000844209D101210804FFF768FD00214FF469
:101AF0008030FFF763FD18E01A48844209D10121C4
:101B00004804FFF75BFD00214FF40030FFF756FD5E
:101B10000BE01548844208D101218804FFF74EFDEF
:101B200000214FF48020FFF749FD10BD002C01403B
:101B30000004004000080040000C0040001000407D
:101B40000014004000340140004C014000500140AE
:101B50000054014000180040001C004000200040DC
:101B600000400140004401400048014030B50246B9
:101B7000002000230024158A05EA0103958905EA5F
:101B8000010413B10CB1012000E0002030BD1AB1F6
:101B900083890B43838102E083898B438381704770
:101BA00070B5002400220023058C4FF6FE763540E8
:101BB0000584028C8388048B4FF68F752C40B51EEC
:101BC0002C400D882C43751E2A400D892A434D88D0
:101BD0002A43144DA8420BD0134DA84208D0134DF0
:101BE000A84205D0124DA84202D0124DA84213D1EE
:101BF0004FF6F7752A404D892A434FF6FB752A4068
:101C00008D882A434FF6FF652B404FF6FF552B403A
:101C10008D892B43CD892B4383800483CD88858692
:101C2000028470BD002C014000340140004001409E
:101C300000440140004801400A460021018B4FF654
:101C4000F7731940114301837047000070B50024F9
:101C500000220023058C4FF6EF7635400584028C78
:101C60008388048B48F6FF752C404FF6FF452C40C7
:101C70000D884FF6FF7606EA05252C434FF6DF75F3
:101C80002A400D8906EA05152A434D8806EA0515FE
:101C90002A43154DA84202D0144DA8421DD14FF63B
:101CA0007F752A404D894FF6FF7606EA05152A43CF
:101CB0004FF6BF752A408D8806EA05152A434FF670
:101CC000FF352B404FF2FF752B408D8906EA8505C5
:101CD0002B43CD8906EA85052B4383800483CD8879
:101CE0000587028470BD0000002C014000340140D3
:101CF0000A460021018B4FF2FF7319404FF6FF7324
:101D000003EA0223194301837047000070B50024E1
:101D100000220023058C4FF6FF6635400584028CB7
:101D20008388848B4FF68F752C404FF6FC752C40C2
:101D30000D882C434FF6FF552A400D894FF6FF764C
:101D400006EA05252A434D8806EA05252A43154D4E
:101D5000A84202D0144DA8421DD14FF2FF752A406F
:101D60004D894FF6FF7606EA05252A434FF6FF35E3
:101D70002A408D8806EA05252A434EF6FF752B403A
:101D80004DF6FF752B408D8906EA05152B43CD894D
:101D900006EA05152B4383808483CD8885870284DA
:101DA00070BD0000002C0140003401400A460021B3
:101DB000818B4FF6F77319401143818370478186F9
:101DC00070470187704781877047000000220288B2
:101DD0001D4B98420ED01D4B98420BD0B0F1804F56
:101DE00008D01B4B984205D01A4B984202D01A4B90
:101DF000984204D14FF68F731A404B881A43174B01
:101E0000984207D0164B984204D04FF6FF431A4031
:101E1000CB881A4302808B8883850B8803850A4B05
:101E200098420BD0094B984208D00E4B984205D0EF
:101E30000D4B984202D00D4B984201D10B7A03868C
:101E40000123838270470000002C014000340140D0
:101E50000004004000080040000C0040001000405A
:101E6000001400400040014000440140004801408F
:101E700010B540F22551204800F050F800283AD023
:101E80001D4800F007F9C4B21C48008800F4004067
:101E9000F8B91A48008800F4804090B10A2C03D0A9
:101EA00000201649088026E01448008840F40040CD
:101EB0001249088000200988C1F30D01104A5054CE
:101EC00019E00D2C06D10D48008840F480400B49E4
:101ED000088010E009480088C0F30D0008490C5440
:101EE00006480088401C0549088008460088FF28ED
:101EF00001DD0020088010BD0038014018000020DE
:101F0000A000002021B1828942F40052828104E0C5
:101F100082894DF6FF731A408281704770B5024680
:101F2000002400230025002040F66A16B14200D1AB
:101F300000BFC1F3421501F01F03012606FA03F3A7
:101F4000012D02D19689334006E0022D02D1168A76
:101F5000334001E0968A33400C12012606FA04F45D
:101F60001688344013B10CB1012000E0002070BD90
:101F7000F0B50346002400260025002040F66A172D
:101F8000B94200D100BF1846C1F3421401F01F0648
:101F9000012707FA06F5012C01D10C3004E0022CD0
:101FA00001D1103000E014301AB107682F430760E8
:101FB00002E00768AF430760F0BD00002DE9F0477D
:101FC00086B005460E460024A24600BFA146002763
:101FD000B08900B100BF2F462C8A4CF6FF70044038
:101FE000F08804432C82AC894EF6F3100440B0888C
:101FF00031890843718908430443AC81AC8A4FF6A8
:10200000FF400440B0890443AC8201A8FFF7E6FA20
:102010001F48874202D1DDF810A001E0DDF80CA0D6
:10202000A88900F4004040B10AEBCA0000EB0A1096
:1020300031684900B0FBF1F807E00AEBCA0000EB99
:102040000A1031688900B0FBF1F86420B8FBF0F0A9
:1020500004012009642101FB1089A88900F40040D3
:1020600040B1322000EBC900B0FBF1F000F00700F6
:10207000044308E0322000EB09106421B0FBF1F0CA
:1020800000F00F0004432C8106B0BDE8F08700008B
:102090000038014001468888C0F30800704700BF3F
:1020A000FEE70000014A024900F0D8B8812B000881
:1020B00014000020490050EAC12018BF04204A0D36
:1020C00018BF40F0010040F2FF72B2EB515F08BF51
:1020D00040F00200012808BF052070472DE9F041BB
:1020E0004F1E00EBC7010446D1E9000115461E460C
:1020F00037F006020DD02A463346FEF784F97F1EDC
:1021000004EBC703D3E90023FEF7D6F837F0060245
:10211000F1D1022F25D0042F13D0062F18BFBDE810
:10212000F0812A463346FEF76EF9D4E90A23FEF71A
:10213000C3F82A463346FEF766F9D4E90823FEF7CA
:10214000BBF82A463346FEF75EF9D4E90623FEF7CC
:10215000B3F82A463346FEF756F9D4E90423FEF7CE
:10216000ABF82A463346FEF74EF9D4E90223FEF7D0
:10217000A3F82A463346FEF746F9D4E90023BDE822
:10218000F041FEF799B80122FEF762BEFEF794B85F
:102190000022134610461146FEF7A7B9024A002056
:1021A0001107FEF755BE000001FDFFFF0148006862
:1021B000704700009C00002002E008C8121F08C100
:1021C000002AFAD170477047002001E001C1121FB8
:1021D000002AFBD1704700000149086070470000E9
:1021E0009C00002070B504460D462846FEF7ECF929
:1021F00006462146FDF7F0FF70BD30380A2801D2AF
:1022000001207047002070472DE9F0470646304610
:10221000FEF76BFA07460F4A0F4B00F067FC0446C7
:10222000FEF7A6FA814600214846FEF7C7FA03D812
:102230004846FEF75AFA07E04846FEF756FA0746C0
:10224000044A054BFEF738F80446FEF791FABDE85C
:10225000F0870000EA2E4454FB2119402DE9F0419B
:1022600016460F460446002503E03946B047641C75
:102270006D1C20780028F8D12846BDE8F0810000C8
:102280002DE9FF5F83465846FEF72FFA0446954A2C
:10229000954BFEF73DFA44D25846FEF726FA934A8C
:1022A000934BCDE90201FEF7AEF8804600221346BB
:1022B000FEF746FA12D85846FEF717FA80468B4AC0
:1022C0008B4BFEF7A0F800228A4BCDE90001FDF709
:1022D000F3FFCDE90201FEF7D0F911E05846FEF711
:1022E00004FA824A824BCDE90001FEF78CF8002205
:1022F000804BCDE90201FEF780F88046FEF7BDF97C
:102300007D4951F820A05046FEF76CF906467B4AFD
:102310007B4BFEF778F80446FEF72AFA04B0BDE8D6
:10232000F09F5846FEF7E1F90446764A764BFEF7F1
:10233000EFF944D25846FEF7D8F96C4A6C4BCDE918
:102340000201FEF760F8804600221346FEF7F8F916
:1023500012D85846FEF7C9F9644A654BCDE9000129
:10236000FEF751F80022634BCDE90201FDF7A4FF0F
:102370008046FEF782F911E05846FEF7B6F95B4A4F
:102380005B4BCDE90001FEF73EF80022594BCDE949
:102390000201FEF732F88046FEF76FF9C0F5C7700C
:1023A000554951F820A05046FEF71CF90646534AFD
:1023B000534BFEF728F80446FEF7DAF9AEE7584625
:1023C000FEF793F90446514A514BFEF7A1F944D266
:1023D0005846FEF78AF9454A454BCDE90201FEF71A
:1023E00012F8804600221346FEF7AAF912D8584682
:1023F000FEF77BF93D4A3E4BCDE90001FEF703F8BD
:10240000804600223B4BFDF757FFCDE90201FEF766
:1024100034F911E05846FEF768F9344A344BCDE9F7
:102420000001FDF7F0FF80460022324BFDF7E5FF8B
:10243000CDE90201FEF721F9A0F5C7702E4951F848
:1024400020A05046FEF7CEF806462C4A314BFDF749
:10245000DAFF0446FEF78CF960E75846FEF745F9C7
:102460008046224A224BFDF7CEFF00221346CDE9DB
:102470000201FEF765F912D85846FEF736F91B4AF5
:102480001B4BCDE90001FDF7BEFF80460022194B32
:10249000FDF712FFCDE90201FEF7EFF811E0584613
:1024A000FEF723F98046114A114BFDF7ACFF0022DD
:1024B000104BCDE90001FDF7A0FFCDE90201FEF7C9
:1024C000DCF8C0F547700C4951F820A05046FEF7E3
:1024D00089F80646094A0F4BFDF795FF0446FEF7BB
:1024E00047F91BE7F4D64354FB21F93F9CA223B9DB
:1024F000FCAB5F400000E03F203400082D431CEBA4
:10250000E2361A3FEA2E4454FB210940320D337F54
:102510007CD91240E2361ABF70B5044625462E46D5
:102520000448A0EB6606354629462046FDF754FED2
:1025300070BD0000865A375F2DE9F0410120154932
:102540000860154A00211548006800F0B1FC4FF4FE
:102550002F7000F083FA00F021FB06460D4800685A
:10256000FEF732F807463146FDF736FE05460C48C1
:1025700001682846FFF736FE0446FFF745FE094985
:102580000860142000F06AFAC82000F067FA012001
:10259000BDE8F08150000020E4CB96405C000020B4
:1025A000600000204C0000202DE9F84F04460D4645
:1025B00021F0004000917349814211DC7249884248
:1025C00001DC06D12CB120462946BDE8F84FFFF7C3
:1025D000DABD6E48002DCCBF6D496E49BDE8F88F5D
:1025E0006D49814211DD6D498142D8BF4FF0FF3600
:1025F0006DDD20462946FFF75DFD042808BFFFF783
:10260000CDFD20462946BDE8F88F6549654F25F088
:102610000045814233DD6449814219DD002632469E
:102620004FF0804320462946FDF746FE80468A4605
:10263000012220462946FEF70BFC00223B46FDF70F
:10264000DCFE42465346FDF750FF04460D463EE091
:1026500001260022BA463B4620462946FDF72CFEBD
:1026600080460F460022534620462946FDF7C5FE08
:1026700042463B46FDF739FF04460D4627E04B49ED
:1026800081421BDDDFF828A10226002253462046A6
:102690002946FDF7B8FE00223B46FDF70DFE8046B9
:1026A0000F460022534620462946FDF7A6FE424625
:1026B0003B46FDF71AFF04460D4608E00326224676
:1026C0002B4600203B49FDF710FF04460D462246ED
:1026D0002B4610461946FDF796FE8B46824602466B
:1026E0000B46FDF790FE07460246334888460B46E8
:1026F00006217844FFF7F2FC52465B46FDF783FE65
:1027000082462E488B463A46434605217844FFF7D9
:10271000E5FC3A464346FDF776FE02460B46002EA0
:10272000504659460CDAFDF7C7FD22462B46FDF709
:102730006AFE01B022462B46BDE8F04FFDF760BEB1
:10274000FDF7BAFD22462B46FDF75DFE1C4A7A4492
:1027500002EBC603D3E90023FDF74FFE22462B46CA
:10276000FDF74BFE174A7A4402EBC603D3E9002378
:10277000FDF746FE009A002AB8BF81F00041BDE88F
:10278000F88F0000000010440000F07F182D445422
:10279000FB21F93FFB21F9BF0000DC3F0000203E98
:1027A0000000F33F0000F03F0000E63F00800340E0
:1027B0000000F83F0000F0BFB210000070100000F1
:1027C0000E100000D60F00002DE9F04D9446CCF11C
:1027D000000423F000464CEA0404594F46EAD4743E
:1027E0009A46884621F00042BC4206D8454240EA5B
:1027F000050442EAD474BC4204D9BDE8F04D6246F7
:10280000FFF7C4BCAAF14055A5F17F6555EA0C0459
:102810000BD0022404EAAA744A4DDFF82CE144EA02
:10282000D87452EA000B04D00CE0BDE8F04DFFF77D
:10283000BBBE002C14BF012CBDE8F08D022C30D0A3
:10284000032C32D056EA0C0B0AD0BE4220D1BA4239
:1028500009D126F0804622F080423346114617E027
:1028600000291ADB25E0DFF8E4B0FB44002C04BFAC
:10287000DBE90001BDE8F08D012C02BFDBE90001BE
:1028800081F00041BDE8F08D022C0AD0032C0CD061
:10289000BA4212D1B8F1000F0BDA2A482C49BDE830
:1028A000F08D28462B49BDE8F08D28467146BDE8DD
:1028B000F08D24482849BDE8F08D921B12153C2A62
:1028C000C4BF204F244E10DCBAF1000FBEBF12F17E
:1028D0003C0F00273E4608DB6246FDF706FE21F06E
:1028E0000041FFF761FE07460E4694B1012C08BF78
:1028F00086F000460DD0194A194B022C3846314655
:1029000015D0FDF77AFD2A46BDE8F04D114BFDF7D5
:1029100074BD0022134638463146FDF7F9FE04BF68
:102920000220FFF759FC38463146BDE8F08DFDF72F
:1029300064FD2A46BDE8F04D064BFDF761BD000081
:102940000000F07F182D4454FB2109C06A0F0000DD
:10295000FB21F9BFFB210940FB21F93F075C143340
:1029600026A6A13C30B583B00446FFF71FFC054600
:102970000020CDE90000024621466846FDF775FFBC
:102980002846FFF729FCDDE9000103B030BD000057
:1029900070B52648008800F40040002845D024483F
:1029A000007848280AD004DC44281ED0452838D1B5
:1029B00024E053282BD0542833D103E01DA0FFF787
:1029C00071FB2EE01A48401CFFF7CCFF0446FDF7D0
:1029D000CFFE1C490860084600681B49C1F8010089
:1029E0000621194800F00EFD1BE04FF40071174856
:1029F000FEF774FB16A0FFF755FB12E04FF40071D1
:102A00001248FEF76DFB12A0FFF74CFB09E000F047
:102A10007DFC1149C1F8010006210F4800F0F2FCCD
:102A200000BF00BF00200149088070BD18000020D1
:102A3000A000002048656C6C6F20576F726C642199
:102A40000D0A0000840000208E000020000C0140D0
:102A50004F4B210D0A00000088000020014642F281
:102A600028324A434FF0E0235A6100229A611A4605
:102A7000126942F001021A6100BF4FF0E0221069B2
:102A800000F001021AB100F48032002AF5D04FF0B4
:102A9000E022126922F001024FF0E0231A610022C5
:102AA0009A6170472DE9F0410C480068FDF78CFDF4
:102AB00006460B4801680B480068FDF735FB0746E2
:102AC0003146FDF789FB0546074801682846FDF7B2
:102AD0007DFB0446FFF798FBBDE8F0816000002015
:102AE000480000201C0000204C00002070B5144657
:102AF0001D460E46002814BF01210021314321F05C
:102B00000041C1F17F6101F1E041C90F16D1002CF4
:102B100014BF01210021294321F00041C1F17F614F
:102B200001F1E041C90F09D11449B1EB460F08BFCB
:102B300000281CD0690008BF002C18D03146FDF7D2
:102B40005BFF024640F2FF7030EA11500DD0F017E3
:102B5000B0EBE17F09D0084665F31E0084460B46C2
:102B600020466146FDF74CFC0246104670BD012030
:102B7000FFF732FBBDE87040FFF70ABB0000E0FF43
:102B800000BF054A128802F04002002AF9D0C2B202
:102B9000014B1B1D1A807047003801402DE9F04F92
:102BA00085B03448FEF788FB0446FDF716FD8246E3
:102BB00031480068FDF708FD04465146FDF709FB62
:102BC00004902E480068FDF70DFD06462C4A2D4B5B
:102BD000FDF719FC804689460498FDF786FD21F033
:102BE0000041044642464B46FDF7AAFD19D200219A
:102BF0000498FDF7E3FD02D22348244901E022486E
:102C000023498046894623480068FDF76EFD064645
:102C100042464B46FDF750FB0446FDF7A9FD1D4912
:102C200008605046FDF7FCFC134908601348006833
:102C3000FDF7CAFC014601905046FDF7FFFA8346B6
:102C4000FDF753FD104A124BCDE90201FDF7DBFB06
:102C500004460D460F480068FDF747FD064622462C
:102C60002B46FDF729FB8046FDF782FD05B0BDE848
:102C7000F08F000000540040780000207000002019
:102C80009A9999999999E93FEA2E4454FB2119C0E0
:102C9000FB211940740000202DE9FC5F4FF0E0207B
:102CA00084692A480068844215D228490968081BAB
:102CB000FDF793FC26490090FDF7C0FA0190FDF75F
:102CC00014FD8246234A244BFDF79DFB0746FDF782
:102CD0004FFD054617E06FF07F41091B1B4A126844
:102CE0008818FDF77AFC1A490090FDF7A7FA0190C1
:102CF000FDF7FBFC0746174A174BFDF784FB82469E
:102D0000FDF736FD054600212846FDF74DFD08D0AC
:102D10002846FDF7EAFC07460022104BFDF710FDA0
:102D200000D20F4DFFF73AFF06460E4801683046C5
:102D3000FDF74CFA07462946FDF780FA8146094817
:102D40000660024804604846BDE8FC9F7C00002005
:102D5000000010418DEDB5A0F7C6B03E0000E03F89
:102D60006F12833A8000002010B50D4800780428C7
:102D700003D00B480078032800D110BD00F0AEFA54
:102D800008490860FFF78EFE07490860074A116886
:102D90005068054A126800F08BF800BFEDE70000AC
:102DA000450000201C0000202000002034000020EE
:102DB00000BFFEF789F84FF4E13000F0C5FAFEF7E6
:102DC0003DFAFEF71DFDFEF77BFD4FF47A70FFF72D
:102DD00045FEFEF721FB25482549086007202549C7
:102DE0000860254825490860254826490860264886
:102DF00026490860002026490870012025490870EE
:102E0000002025490860FEF723FBFEF73FFB00F09A
:102E10008FFA4FF400712148FEF762F925E020484F
:102E20000068C82808D300201D4908601D48C068F4
:102E300080F400501B49C860194800680A21B0FBA3
:102E4000F1F201FB120040B900F060FA1649C1F836
:102E500001000621144800F0D5FA0F480068134914
:102E60004860FFF781FFFFF793FDD8E7000040417E
:102E700054000020600000200000A0405800002006
:102E80000000A04168000020000040405C000020DD
:102E9000440000204500002084000020000C014078
:102EA0009400002000100140880000203400002021
:102EB0002DE9F74F96B082468B4600215846FDF724
:102EC00073FC38D051465046FDF786F959461190AB
:102ED0005846FDF781F910901199FDF725F91290E8
:102EE000FFF71AFB1390EF4801681398FDF7A6F956
:102EF00080465846FDF7F9FBCDE90A015046FDF73B
:102F0000F4FBCDE90801DDE90A23FFF75DFCCDE91B
:102F10000E011898FDF7E9FBCDE90C01DDE90E2360
:102F2000FDF7CAF9CDE91001FDF722FC1390FFF778
:102F30006BF9189016E0DB4801685046FDF77EF902
:102F400080461898FDF7D1FBD74AD84BCDE90E0142
:102F5000FDF7B2F9CDE91001FDF70AFC1390FFF778
:102F600053F918904046FDF7C0FBD14AD14BCDE94B
:102F70001201FDF7E5FB01D2DFF83C834046FDF787
:102F8000B4FBCB4ACD4BCDE91201FDF7C1FB01D219
:102F9000DFF82C831898FDF7A8FBCA4ACA4BCDE985
:102FA0000E01FDF7A2FA0022C84BCDE91001FDF792
:102FB00083F9CDE91201FDF77FFB07464046FDF797
:102FC00094FBCDE910011898FDF78FFBCDE90601C0
:102FD0003846FDF718FBBB4ABB4BCDE90201FDF7B4
:102FE00012FACDE90401DDE90623FDF706FACDE981
:102FF0000801FDF7BDFB0A90FFF742F90B90FDF7C2
:1030000074FBB34AB34BCDE90C01FDF7FCF9CDE9F4
:103010000E01DDE91023FDF7F6F9CDE91201FDF708
:10302000A7FB81464046FDF760FBCDE9100138461D
:10303000FDF7E9FA0022A54BCDE90001FDF7DDF926
:10304000A04AA14BCDE90201FDF7DDF9CDE906016A
:103050001898FDF74AFBCDE90401DDE90623FDF7E9
:10306000CCF9CDE90801FDF783FB0A90FFF708F9D9
:103070000B90FDF73AFB964A964BCDE90C01FDF714
:10308000C2F9CDE90E01DDE91023FDF7BCF9CDE968
:103090001201FDF76DFB149049464FF07E50FDF78D
:1030A00095F813901499FDF791F81590072F7DD29C
:1030B000DFE807F0C60424446486A6004FF0804190
:1030C0001598FDF7BBF8139048461499FDF72CF8B6
:1030D00012901399FDF728F804464FF08041159897
:1030E000FDF7ACF813901499FDF71EF805464FF064
:1030F00080411598FDF7A2F80646A5E04FF0804103
:103100001598FDF79BF849461390FDF70DF8044616
:103110004FF080411598FDF791F8139048461499A7
:10312000FDF702F812901399FCF7FEFF05464FF0E9
:1031300080411598FDF782F8064685E04FF0804102
:103140001598FDF77BF804464FF080411598FDF780
:1031500075F8139048461499FCF7E6FF12901399FE
:10316000FCF7E2FF05464FF080411598FDF766F841
:1031700013901499FCF7D8FF064665E04FF08041A4
:103180001598FDF75BF804464FF080411598FDF760
:1031900055F849461390FCF7C7FF05464FF08041AC
:1031A0001598FDF74BF81390484600E048E0149955
:1031B000FCF7BAFF12901399FCF7B6FF064643E0FE
:1031C0004FF080411598FDF739F813901499FCF7EA
:1031D000ABFF04464FF080411598FDF72FF80546E8
:1031E0004FF080411598FDF729F81390484614993F
:1031F000FCF79AFF12901399FCF796FF064623E01E
:103200004FF080411598FDF719F81390484614992E
:10321000FCF78AFF12901399FCF786FF04464FF0E3
:1032200080411598FDF70AF805464FF08041159842
:10323000FDF704F849461390FCF776FF064603E0D5
:1032400000240025002600BF00BF23492046FCF7CC
:10325000C3FF1290FDF7FDF980B2014613904FF0C5
:103260008040FEF7ACFD1C492846FCF7B5FF1290E4
:10327000FDF7EFF980B2014613904FF08040FEF762
:10328000A0FD15493046FCF7A7FF1290FDF7E1F9C4
:1032900080B2014613904FF08040FEF794FD19B0C4
:1032A000BDE8F08F54000020F4D64354FB21F93FD1
:1032B000105839B4C876E23F46B6133FC876E2BF2D
:1032C00046B613BF40AF2D3852C1F03F0000F03F6B
:1032D0006B6058E87AB6FB3F0000B44470B5FFF766
:1032E0005DFC054607480068FDF76EF9064629466D
:1032F000FCF772FF0446044801682046FCF766FFAD
:1033000070BD0000500000204800002070B5FFF79D
:10331000C3FC0646FEF750F8044604480068FDF773
:1033200053F905462146FCF757FF70BD50000020B9
:1033300004484FF0E02148610020886101200861C5
:1033400070470000FEFFFF0010B586B00446012163
:1033500044F20400FEF722F94FF40070ADF81400B7
:1033600003208DF8160018208DF8170005A91C48B9
:10337000FDF7E0FD4FF48060ADF8140004208DF8F7
:10338000170005A91648FDF7D5FD25208DF800008A
:1033900003208DF801008DF8020001208DF8030054
:1033A0006846FEF7A1F801940020ADF80800ADF8DA
:1033B0000A00ADF80C00ADF810000C20ADF80E00BE
:1033C00001A90848FEF7FAFD012240F225510548FF
:1033D000FEF7CEFD01210348FEF794FD06B010BDB7
:1033E00000080140003801400549088000BF044939
:1033F000091F098801F080010029F8D070470000FA
:103400000438014010B502460B4603E012F8010BE8
:10341000FFF7EAFF181EA3F101018BB2F6D110BD30
:10342000000000004F0000009E000000ED000000C2
:103430003C0100008B010000D901000028020000BF
:1034400077020000C60200001503000063030000BD
:10345000B2030000000400004F0400009D040000BF
:10346000EC0400003A05000088050000D6050000C5
:103470002406000072060000C00600000E070000CF
:103480005B070000A9070000F607000043080000E2
:1034900090080000DD0800002A09000077090000FC
:1034A000C30900000F0A00005C0A0000A80A00001F
:1034B000F40A00003F0B00008B0B0000D60B00004D
:1034C000210C00006C0C0000B70C0000010D000086
:1034D0004C0D0000960D0000E00D0000290E0000CC
:1034E000730E0000BC0E0000050F00004E0F000020
:1034F000960F0000DF0F0000271000006E10000084
:10350000B6100000FD100000441100008B110000F7
:10351000D1110000171200005D120000A21200007D
:10352000E81200002D13000071130000B613000014
:10353000F91300003D14000081140000C4140000C1
:1035400006150000491500008B150000CC15000081
:103550000E1600004F1600008F160000CF16000058
:103560000F1700004F1700008E170000CD17000046
:103570000B1800004918000087180000C41800004C
:10358000011900003D19000079190000B51900006B
:10359000F01900002B1A0000661A00009F1A0000A4
:1035A000D91A0000121B00004B1B0000831B0000F7
:1035B000BB1B0000F21B0000291C0000601C000067
:1035C000961C0000CB1C0000001D0000351D0000F3
:1035D000691D00009D1D0000D01D0000031E00009D
:1035E000351E0000671E0000981E0000C91E000066
:1035F000FA1E0000291F0000591F0000881F00004C
:10360000B61F0000E41F0000112000003E20000053
:103610006A20000096200000C1200000EC2000007D
:1036200016210000402100006921000092210000C5
:10363000BA210000E1210000082200002F22000032
:10364000552200007A2200009F220000C3220000C1
:10365000E72200000A2300002D2300004F23000072
:103660007023000091230000B2230000D12300004A
:10367000F12300000F2400002D2400004B24000043
:103680006824000084240000A0240000BB24000063
:10369000D5240000EF2400000925000022250000A9
:1036A0003A25000052250000692500007F25000012
:1036B00095250000AA250000BF250000D3250000A5
:1036C000E6250000F92500000B2600001D2600005D
:1036D0002E2600003E2600004E2600005D2600003B
:1036E0006C2600007A260000872600009426000041
:1036F000A0260000AB260000B6260000C026000071
:10370000CA260000D3260000DB260000E3260000C6
:10371000EA260000F1260000F7260000FC26000043
:103720000127000005270000082700000B270000E4
:103730000D2700000F2700001027000010270000B1
:103740004FBB610567ACDD3F182D4454FB21E93FB9
:103750009BF681D20B73EF3F182D4454FB21F93FA8
:10376000E2652F227F2B7A3C075C143326A6813C2E
:10377000BDCBF07A8807703C075C143326A6913CD9
:10378000C4EB98999999C9BF711623FEC671BCBF45
:103790006D9A74AFF2B0B3BF9AFDDE522DDEADBFAD
:1037A0002F6C6A2C44B4A2BF0D5555555555D53FC5
:1037B000FF8300922449C23F6E204CC5CD45B73FE0
:1037C000513DD0A0660DB13FEB0D76244B7BA93F58
:1037D00011DA22E33AAD903F000000000000000043
:1037E000DDDDDDDDDCBBBBDDDDDDDDDDDDDDDDDD4E
:1037F000988888888888888877777777778888888E
:103800008555555666666666666666666668888825
:103810008333333222222222222222222228888D1E
:103820004038000800000020A0000000B821000877
:10383000E0380008A000002000050000C8210008B2
:103840000000000001020304010203040607080946
:103850000204060800000000000000000000000054
:103860000000000000000000000000000000000058
:103870000000000000000000000000000000000048
:103880000000000000000000000000000000000038
:103890000000000000000000000000000000000028
:1038A0000000000000000000000000000000000018
:1038B0000000000000000000000000000000000008
:1038C0000000000000000000AA00000000BBCC00C7
:1038D000000000DD0000000000000000000000000B
:04000005080000ED02
:00000001FF
